:020000040800F2
:1000000048080020CD010008690E0008E509000835
:10001000650E0008290400082929000800000000D6
:10002000000000000000000000000000A91300080C
:100030007504000800000000BD100008CD15000880
:10004000E7010008E7010008E7010008E7010008F0
:10005000E7010008E7010008E7010008E7010008E0
:10006000E7010008E7010008E7010008E7010008D0
:10007000E7010008E7010008E7010008E7010008C0
:10008000E7010008E7010008E7010008E7010008B0
:10009000E7010008E7010008E7010008E7010008A0
:1000A000E7010008E7010008E7010008E701000890
:1000B000E7010008E7010008E7010008E701000880
:1000C000E7010008E7010008E7010008E701000870
:1000D000E701000899250008212600085D26000890
:1000E000E7010008E7010008E7010008E701000850
:1000F000E7010008E7010008E7010008E701000840
:10010000E7010008E7010008E7010008E70100082F
:10011000E7010008E701000871180008E70100087E
:10012000E7010008E7010008E7010008E70100080F
:1001300000F002F800F03AF80AA090E8000C8244BF
:100140008344AAF10107DA4501D100F02FF8AFF29C
:10015000090EBAE80F0013F0010F18BFFB1A43F0A5
:10016000010318473837000058370000103A24BF01
:1001700078C878C1FAD8520724BF30C830C144BF0C
:1001800004680C607047000000230024002500264E
:10019000103A28BF78C1FBD8520728BF30C148BFEA
:1001A0000B6070471FB51FBD10B510BD00F033F8D0
:1001B0001146FFF7F7FF02F033FC00F051F803B4EB
:1001C000FFF7F2FF03BC02F0B1FB000009488047D3
:1001D00009480047FEE7FEE7FEE7FEE7FEE7FEE729
:1001E000FEE7FEE7FEE7FEE704480549054A064B41
:1001F00070470000D11500083101000848020020B6
:100200004808002048040020480400207047704738
:10021000704770477047754600F02CF8AE460500F1
:100220006946534620F00700854618B020B5FFF711
:10023000DBFFBDE820404FF000064FF000074FF015
:1002400000084FF0000B21F00701AC46ACE8C009F4
:10025000ACE8C009ACE8C009ACE8C0098D467047FD
:1002600010B50446AFF300802046BDE81040FFF70C
:10027000A6BF000000487047E40100202DE9F041CE
:100280000B48006880F000440948006880F0004591
:100290000748006880F000460548006880F0004785
:1002A00023462A463146384600F0C0F8BDE8F081C2
:1002B0009C00002010B556480078002808D0002087
:1002C0005349087053480078312802D100F07EFB72
:1002D0009DE050480078322802D1FFF7CFFF96E02A
:1002E0004C480078332802D100F036FD8FE04948B1
:1002F0000078342802D100F0D1FF88E0454800782A
:10030000352802D100F03CFD81E0424800783628D3
:1003100002D100F0D7FF7AE03E480078532803D09E
:100320003C480078732802D101F034F96FE0394875
:100330000078542803D14B203749087067E03548CE
:100340000078552802D102F0D5FB60E031480078F2
:10035000442802D102F05CFB59E02E4800784F2877
:1003600002D102F0B7FB52E02A480078522802D1AD
:1003700002F0B8FB4BE027480078432802D102F096
:10038000F9FA44E023480078462810D1234924484C
:10039000006802F04DFF22490860224920480068A9
:1003A00003F0CAF933D21F481D4908602FE01948ED
:1003B00000784C2810D119491948006803F0F8F961
:1003C0001749086015491648006803F0B5F81ED2B1
:1003D0001248134908601AE00E480078372802D105
:1003E00002F084FA13E00B480078382802D102F0BA
:1003F0008FFA0CE007480078392802D100F03CF869
:1004000005E004480078302801D100F041F810BD23
:10041000990000209A0000209800002000007A43F4
:100420009C0000200000FA4400BFFEE72DE9F041E7
:1004300007460C4615461E46384603F029F809497A
:100440000860204603F024F807490860284603F0B6
:100450001FF806490860304603F01AF8044908609E
:10046000BDE8F081880000208C0000209000002072
:10047000940000207047000010B504480368002174
:1004800002680846FFF7D2FF10BD00009C00002064
:1004900070B50748006880F000440548006880F0A7
:1004A000004523462A4600210846FFF7BFFF70BDDE
:1004B0009C00002010B500F007F800F083F800F071
:1004C000E3F800F043F910BD00B587B001210D201D
:1004D00000F016FE0121084600F0F2FD012135482A
:1004E00000F022FA0121344800F01EFA4FF40040D7
:1004F000ADF8000004208DF8030069462F4800F095
:1005000087F90820ADF8000004208DF80300694643
:100510002B4800F07DF90020ADF812004FF6FE7078
:10052000ADF814000020ADF81000ADF816008DF8FD
:10053000180004A94FF0804001F07CFC0020ADF8C9
:100540000400ADF80A00ADF806000120ADF808007F
:100550000020ADF80C0001A94FF0804001F07CFABA
:100560000420ADF804000020ADF80A00ADF8060044
:100570000120ADF808000020ADF80C0001A94FF0F3
:10058000804001F069FA00231A4603214FF08040B1
:1005900001F037FA0121880701F012FA00214FF02B
:1005A000804001F018FC0121880701F00FFA07B024
:1005B00000BD0000000318000002300000080140E8
:1005C000000C014000B587B00121042000F098FD27
:1005D0000121022000F074FDC020ADF800000420CD
:1005E0008DF803006946264800F012F90020ADF8A6
:1005F00012004FF6FE70ADF814000020ADF81000A8
:10060000ADF816008DF8180004A91E4801F012FC80
:100610000020ADF80400ADF80A00ADF80600012096
:10062000ADF808000020ADF80C0001A9154801F054
:1006300013FA0420ADF804000020ADF80A00ADF86C
:1006400006000120ADF808000020ADF80C0001A95B
:100650000C4801F001FA00231A460321094801F071
:10066000D0F90121074801F0ABF90021054801F05C
:10067000B2FB0121034801F0A9F907B000BD000059
:10068000000801400004004000B587B001210820A7
:1006900000F036FD0121042000F012FDC020ADF86D
:1006A000000004208DF803006946264800F0B0F8E9
:1006B0000020ADF812004FF6FE70ADF814000020D7
:1006C000ADF81000ADF816008DF8180004A91E480A
:1006D00001F0B0FB0020ADF80400ADF80A00ADF861
:1006E00006000120ADF808000020ADF80C0001A9BB
:1006F000154801F0B1F90420ADF804000020ADF870
:100700000A00ADF806000120ADF808000020ADF8A1
:100710000C0001A90C4801F09FF900231A4603219F
:10072000094801F06EF90121074801F049F900215B
:10073000054801F050FB0121034801F047F907B0DB
:1007400000BD0000000C01400008004000B587B06B
:100750000121042000F0D4FC0121082000F0B0FCAD
:100760000320ADF8000004208DF8030069462648F8
:1007700000F04EF80020ADF812004FF6FE70ADF814
:1007800014000020ADF81000ADF816008DF8180028
:1007900004A91E4801F04EFB0020ADF80400ADF89E
:1007A0000A00ADF806000120ADF808000020ADF801
:1007B0000C0001A9154801F04FF90420ADF8040020
:1007C0000020ADF80A00ADF806000120ADF80800E1
:1007D0000020ADF80C0001A90C4801F03DF9002300
:1007E0001A460321094801F00CF90121074801F0DC
:1007F000E7F80021054801F0EEFA0121034801F075
:10080000E5F807B000BD000000080140000C004002
:100810002DE9F04102460025002600200023002497
:10082000002791F803C00CF00F0591F803C00CF0FD
:10083000100CBCF1000F03D091F802C04CEA050582
:1008400091F800C0BCF1000F31D0146800202BE0FB
:100850004FF0010C0CFA00F3B1F800C00CEA0306EB
:100860009E4220D183004FF00F0C0CFA03F7BC43DB
:1008700005FA03FC4CEA040491F803C0BCF1280F0C
:1008800006D14FF0010C0CFA00FCC2F814C00AE0CB
:1008900091F803C0BCF1480F05D14FF0010C0CFAE0
:1008A00000FCC2F810C0401C0828D1D31460B1F875
:1008B00000C0BCF1FF0F34DD546800202EE000F1D1
:1008C000080C4FF0010808FA0CF3B1F800C00CEA6C
:1008D00003069E4221D183004FF00F0C0CFA03F760
:1008E000BC4305FA03FC4CEA040491F803C0BCF1D4
:1008F000280F05D100F1080C08FA0CF8C2F8148092
:1009000091F803C0BCF1480F07D100F1080C4FF07B
:10091000010808FA0CF8C2F81080401C0828CED351
:100920005460BDE8F0810000F0B50A4600230024C1
:100930000021002500F00046B6F1004F02D11D4E07
:10094000F16901E01B4E7168C0F3034583B200F406
:100950004016B6F5401F08D121F07061154E76683B
:1009600026F07066134F7E6012E000F48016B6F534
:10097000801F06D1032606FA05F4A14341F07061F9
:1009800006E0460D360103FA06F6B14341F0706108
:1009900022B1460D360103FA06F6314300F0004657
:1009A000B6F1004F02D1034EF16101E0014E7160DA
:1009B000F0BD0000000001400246002093680B409B
:1009C0000BB1012000E000207047000010B5044882
:1009D0000368026801680068FFF728FD10BD000089
:1009E0009C00002000BFFEE72DE9F05F04460D46A5
:1009F000281B02F089FD2D4988600846C1684FF028
:100A0000804002F0CDFD834628488168584602F0B8
:100A1000C4FE824625480169504602F009FC814621
:100A200023480168484602F0BBFD07461F4881681D
:100A30002048006802F0B4FD82461C4AD1689068E4
:100A400002F0B6FE83461C480168584602F0A8FD35
:100A50008146514602F0ECFB8046394602F0E8FB45
:100A6000064612484169304602F0E2FB0F494861F0
:100A70004869124902F060FD03D210480B494861F1
:100A800008E00A4948690E4902F056FE02D20C48B5
:100A9000064948610548C0680449086108468068FD
:100AA000C860486902F0F4FCBDE8F09F84010020B2
:100AB000400000203C0000203800002000E0DDC5A0
:100AC00000E0DD452DE9F05F04460D46281B02F0ED
:100AD0001BFD2D4908620846416A4FF0804002F034
:100AE0005FFD83462848016A584602F056FE82465A
:100AF0002548816A504602F09BFB814623480168E5
:100B0000484602F04DFD07461F48016A204800682C
:100B100002F046FD82461C4A516A106A02F048FE05
:100B200083461C480168584602F03AFD814651460A
:100B300002F07EFB8046394602F07AFB06461248F8
:100B4000C16A304602F074FB0F49C862C86A124994
:100B500002F0F2FC03D210490B48C16208E00A49D6
:100B6000C86A0E4902F0E8FD02D20C490648C1628B
:100B70000548416A8162016A41620146C86A02F021
:100B800087FCBDE8F09F0000840100204C0000209D
:100B9000480000204400002000E0DDC500E0DD4505
:100BA0002DE9F05F04460D46281B02F0ADFC2D49EF
:100BB00088630846C16B4FF0804002F0F1FC834629
:100BC0002848816B584602F0E8FD82462548016CB2
:100BD000504602F02DFB814623480168484602F04A
:100BE000DFFC07461F48816B2048006802F0D8FCF4
:100BF00082461C4AD16B906B02F0DAFD83461C489A
:100C00000168584602F0CCFC8146514602F010FBC8
:100C10008046394602F00CFB06461248416C3046CD
:100C200002F006FB0F494864486C124902F084FC4C
:100C300003D210490B48416408E00A49486C0E4948
:100C400002F07AFD02D20C49064841640548C16BA6
:100C50000164816BC1630146486C02F019FCBDE878
:100C6000F09F000084010020580000205400002064
:100C70005000002000E0DDC500E0DD452DE9F05F1B
:100C800004460D46281B02F03FFC2D490865084626
:100C9000416D4FF0804002F083FC83462848016D8F
:100CA000584602F07AFD82462548816D504602F092
:100CB000BFFA814623480168484602F071FC0746A6
:100CC0001F48016D2048006802F06AFC82461C4AF9
:100CD000516D106D02F06CFD83461C48016858464A
:100CE00002F05EFC8146514602F0A2FA8046394687
:100CF00002F09EFA06461248C16D304602F098FA9C
:100D00000F49C865C86D124902F016FC03D210499C
:100D10000B48C16508E00A49C86D0E4902F00CFD98
:100D200002D20C490648C1650548416D8165016DD7
:100D300041650146C86D02F0ABFBBDE8F09F0000C5
:100D40008401002064000020600000205C0000207E
:100D500000E0DDC500E0DD4570B50848006880F0C2
:100D600000440648006880F0004523462A460348B0
:100D700001680068FFF75AFB70BD00009C0000206E
:100D80002DE9FF5F3448006802F026FA8046334AB6
:100D9000334B02F039F806460F462F48006802F040
:100DA0001BFA824632463B4602F02CF9044601F01B
:100DB00051FF03902848006802F00EFA0646274AC1
:100DC000274B02F021F8804689462348006802F04C
:100DD00003FA824642464B4602F014F981F0004184
:100DE000044601F037FF02901B48006802F0F4F956
:100DF00006461A4A1A4B02F007F804460D461648F2
:100E0000006802F0E9F9804622462B4602F0FAF823
:100E100081F00041824601F01DFF01900E480068FC
:100E200002F0DAF982460D4A0D4B01F0EDFF04465F
:100E30000D460948006802F0CFF9064622462B46C7
:100E400002F0E0F8804601F005FF009001A90EC90C
:100E5000FFF7ECFABDE8FF9F9C0000209A99999952
:100E60009999D93F00BFFEE77047000070B5002197
:100E700000230F22C47804B3154C246804F4E06402
:100E8000C4F5E064210AC1F10403CA40447804FABD
:100E900003F184781440214309010E4C0678A155D2
:100EA000047804F01F050124AC4005786D11AD00F5
:100EB00005F1E025C5F8004109E0047804F01F05BC
:100EC0000124AC40044D0678761145F8264070BDEB
:100ED0000CED00E000E400E080E100E002490143A5
:100EE000024A1160704700000000FA050CED00E0B6
:100EF00030B589B005460C46012140F6410000F0AE
:100F0000FFF801212448FFF70FFD4FF42060ADF8F2
:100F1000200018208DF8230003208DF8220008A956
:100F20001E48FFF775FCADF81850ADF814400020CE
:100F3000ADF81A00ADF8160005A9194800F07AFFBF
:100F40000020ADF80A006020ADF804000020ADF8E4
:100F50000C000120ADF806000420ADF808000020C8
:100F6000ADF81000ADF81200ADF80E0001A90C4864
:100F700000F0D2FD01A90A4800F024FE0121084832
:100F800000F030FD0121064800F00EFD012104486B
:100F900000F01CFD09B030BDC00016000018014073
:100FA000002C014030B589B005460C46012142F2C3
:100FB000580000F0A5F84FF47040ADF82000102064
:100FC0008DF8230003208DF8220008A93748FFF789
:100FD0001FFC4FF47040ADF8200010208DF8230066
:100FE00003208DF8220008A93148FFF711FC4FF4C7
:100FF0007070ADF8200018208DF8230003208DF8C4
:10100000220008A92B48FFF703FCADF81850ADF8F3
:1010100014400020ADF81A00ADF8160005A92648C6
:1010200000F008FF0020ADF80A006020ADF80400D1
:101030000020ADF80C000120ADF806000420ADF84A
:1010400008000020ADF81000ADF81200ADF80E0059
:1010500001A9194800F060FD01A9174800F0B2FD90
:1010600001A9154800F00EFE01A9134800F064FE26
:101070000821114800F09CFD08210F4800F0F4FD04
:1010800008210D4800F04EFE08210B4800F092FEAA
:101090000121094800F0A6FC0121074800F084FC6A
:1010A0000121054800F092FC09B030BD000C014060
:1010B000001801400010014000340140704700005A
:1010C00029B1064AD2690243044BDA6104E0034ABB
:1010D000D2698243014BDA61704700000010024080
:1010E00029B1064A12690243044B1A6104E0034A1B
:1010F00012698243014B1A617047000000100240E0
:1011000029B1064A92690243044B9A6104E0034AFA
:1011100092698243014B9A617047000000100240BF
:1011200029B1064AD2680243044BDA6004E0034A5C
:10113000D2688243014BDA60704700000010024021
:1011400030B500210022002400232D4D6D6805F0EC
:101150000C0121B1042905D0082923D105E0294D2E
:10116000056022E0274D05601FE0254D6D6805F400
:101170007012234D6D6805F48034022505EB924210
:101180001CB9214D554305600BE01D4D6D6805F4FC
:1011900000351DB11C4D5543056002E0194D554306
:1011A000056002E0174D056000BF00BF144D6D687B
:1011B00005F0F0010909154D6B5C0568DD404560DF
:1011C0000F4D6D6805F4E061090A104D6B5C4568D0
:1011D000DD4085600A4D6D6805F46051C90A0B4D0C
:1011E0006B5C4568DD40C560054D6D6805F44041A8
:1011F000890B074D6B5CC568B5FBF3F5056130BD28
:101200000010024000127A0000093D002200002078
:10121000320000200146092932D2DFE801F0310511
:101220000C151C2331312A00174A128810B20022F3
:10123000154B1A8026E04FF08042928C10B20022AB
:101240004FF080439A841DE0104A128810B20022A9
:101250000E4B1A8016E00E4A128810B200220C4B78
:101260001A800FE00B4A128810B20022094B1A8034
:1012700008E0094A128810B20022074B1A8001E0E8
:10128000002000BF00BF7047242C01402404004010
:1012900024080040240C00402434014070B5084864
:1012A000006880F000440648006880F0004504486B
:1012B0000368214602682846FFF7B8F870BD0000B1
:1012C0009C0000202DE9FF5F3448006801F084FF96
:1012D0008246334A334B01F097FD06460F462F48AE
:1012E000006801F079FF804632463B4601F08AFEF5
:1012F00081F00041044601F0ADFC039027480068EE
:1013000001F06AFF8246264A264B01F07DFD064623
:101310000F462248006801F05FFF804632463B4698
:1013200001F070FE044601F095FC02901B48006835
:1013300001F052FF06461A4A1A4B01F065FD80463D
:1013400089461648006801F047FF044642464B466E
:1013500001F058FE824601F07DFC01900F480068C4
:1013600001F03AFF80460E4A0E4B01F04DFD044657
:101370000D460A48006801F02FFF064622462B461C
:1013800001F040FE81F00041824601F063FC0090D4
:1013900001A90EC9FFF74AF8BDE8FF9F9C00002095
:1013A0009A9999999999D93F704710B500F002F828
:1013B00010BD00000CB5002001900090334800687B
:1013C00040F480303149086000BF3048006800F4C4
:1013D000003000900198401C0190009818B90198C5
:1013E000B0F5A06FF1D12948006800F4003010B1C9
:1013F0000120009001E0002000900098012843D1D6
:101400002348006840F01000214908600846006841
:1014100020F0030008600846006840F00200086001
:101420001A484068194948600846406848600846BC
:10143000406840F4806048600846406820F47C10B2
:1014400048600846406840F4E81048600846006874
:1014500040F08070086000BF0C48006800F0007029
:101460000028F9D00948406820F003000749486087
:101470000846406840F00200486000BF03484068EA
:1014800000F00C000828F9D10CBD0000001002404B
:101490000020024000B50246002A07DD00200A496C
:1014A000086001200949C1F8B40106E0012006499D
:1014B000086000200549C1F8B401104601F002FBA4
:1014C0000349088000BD0000B08121420080214214
:1014D0003434014000B50246002A07DD01200A49E4
:1014E000086000200949C1F8B40106E0002006495F
:1014F000086001200549C1F8B401104601F0E2FA84
:101500000349088000BD0000B001234200002342CF
:101510003834014000B50246002A07DD01200A499F
:10152000086000200949C1F8BC0106E00020064916
:10153000086001200549C1F8BC01104601F0C2FA5B
:101540000349088000BD0000B80123420000234287
:101550003C34014000B50246002A07DD00200A495C
:10156000086001200949C1F8BC0106E001200649D4
:10157000086000200549C1F8BC01104601F0A2FA3C
:101580000349088000BD0000B8812142008021424B
:101590004034014010B500231A4619461846FEF79C
:1015A00045FF10BD042808D14FF0E021096941F042
:1015B00004014FF0E022116107E04FF0E0210969DA
:1015C00021F004014FF0E0221161704770470000E4
:1015D00010B51348006840F0010011490860084642
:1015E0004068104908400E494860084600680E49A6
:1015F00008400B4908600846006820F48020086015
:101600000846406820F4FE0048604FF41F008860E0
:10161000FFF7CBFE4FF000600449086010BD0000EA
:10162000001002400000FFF8FFFFF6FE08ED00E0AA
:10163000F0B50C46154600220021068C4FF6FE77C9
:101640003E400684028B018C4FF60C7632407E1CA5
:1016500006EA03162E433243104EB0420ED0104E0F
:10166000B0420BD0B0F1804F08D00E4EB04205D042
:101670000D4EB04202D00D4EB04206D14FF6FD766F
:10168000314044F00106314305E04FF6F576314034
:1016900044F00106314302830184F0BD002C014077
:1016A000003401400004004000080040000C0040ED
:1016B000F0B50C461546002200210026078C4FF697
:1016C000EF7C07EA0C070784028B018C4FF6FF774B
:1016D00007EA041640F6FF473A404FF6FF7707EA5D
:1016E00003373A434FF6FF7707EA05273A43114F8E
:1016F000B8420ED0104FB8420BD0B0F1804F08D096
:101700000E4FB84205D00E4FB84202D00D4FB8422E
:1017100006D14FF6DF77394046F01007394305E030
:101720004FF65F77394044F0100739430283018454
:10173000F0BD0000002C01400034014000040040D6
:1017400000080040000C0040F0B50C461546002291
:1017500000210026078C4FF6FF6C07EA0C07078470
:10176000828B018C4FF6FF7707EA04264FF60C7741
:101770003A404FF6FF7707EA03172F433A43114FDA
:10178000B8420ED0104FB8420BD0B0F1804F08D005
:101790000E4FB84205D00E4FB84202D00D4FB8429E
:1017A00006D14FF6FF57394046F48077394305E0BC
:1017B0004FF2FF57394044F48077394382830184E4
:1017C000F0BD0000002C0140003401400004004046
:1017D00000080040000C0040F0B50C461546002201
:1017E00000210026078C4EF6FF7C07EA0C070784D1
:1017F000828B018C4FF6FF7707EA043640F6FF47ED
:101800003A404FF6FF7707EA05273A434FF6FF774E
:1018100007EA03373A43114FB8420ED0104FB8428F
:101820000BD0B0F1804F08D00E4FB84205D00E4F0C
:10183000B84202D00D4FB84206D14DF6FF7739407D
:1018400046F48057394305E047F6FF57394044F4E2
:101850008057394382830184F0BD0000002C014091
:10186000003401400004004000080040000C00402B
:1018700010B50121264800F0E5F8012847D10121E3
:10188000234800F0A0F80220FFF7C4FC21490860BB
:101890000320FFF7BFFC204908600420FFF7BAFCD3
:1018A0001E4908600520FFF7B5FC1D4908601D486A
:1018B000016818480068FFF797F81B4908601B4843
:1018C000016815480068FFF7FDF8194908601948D4
:1018D000016812480068FFF763F917490860174864
:1018E00001680F480068FFF7C9F9154908600E48FC
:1018F0000068FFF7CFFD0E480068FFF7EBFD0E48CC
:101900000068FFF707FE0E480068FFF723FE10BDD2
:10191000001000406C000020740000207C000020BB
:101920008400002088000020680000208C00002037
:10193000700000209000002078000020940000201B
:10194000800000207FB504460D4601211020FFF7DE
:10195000B7FBADF80450ADF808400020ADF80A0020
:10196000ADF8060001A90F4800F064FA01210D4806
:1019700000F026F8012211460A4800F0C3F836208C
:101980008DF8000001208DF803008DF80100022081
:101990008DF802006846FFF769FA0121014800F05E
:1019A00015F87FBD0010004021B1028842F080028E
:1019B000028004E002884FF67F731A40028070476D
:1019C000CA4302827047CA430282704721B102882B
:1019D00042F00102028004E002884FF6FE731A40D2
:1019E0000280704731B1B0F8442042F40042A0F8C0
:1019F000442005E0B0F84420C2F30E02A0F84420D1
:101A00007047F0B50C4615461E4600210022002303
:101A10000189028B038C4FF6F877394021434FF64A
:101A2000FC473A4040F201173A434FF6DD773B401E
:101A30004FF6FF7707EA06172F433B4301810283E6
:101A40000384F0BD02460020138A0B400BB1012035
:101A500000E000207047000070B505460C462448A1
:101A600085420ED0234885420BD0B5F1804F08D077
:101A70002148854205D02148854202D02048854230
:101A800000D100E000BF208850B92389A288618876
:101A90002846FFF7CDFDE188284600F09EF925E0B5
:101AA000208804280AD12389A28861882846FFF764
:101AB000FFFDE188284600F099F917E02088082802
:101AC0000AD12389A28861882846FFF73DFEE18874
:101AD000284600F098F909E02389A2886188284601
:101AE000FFF77AFEE188284600F096F970BD000005
:101AF000002C014000340140000400400008004078
:101B0000000C00401AB183890B43838102E0838972
:101B10008B4383817047000070B5002400220023AE
:101B2000058C4FF6FE7635400584028C8388048B45
:101B30004FF68F752C40B51E2C400D882C43751E1A
:101B40002A400D892A434D882A43144DA8420BD0C0
:101B5000134DA84208D0134DA84205D0124DA842FB
:101B600002D0124DA84213D14FF6F7752A404D8985
:101B70002A434FF6FB752A408D882A434FF6FF65AE
:101B80002B404FF6FF552B408D892B43CD892B439E
:101B900083800483CD888586028470BD002C01403B
:101BA0000034014000400140004401400048014031
:101BB0000A460021018B4FF6F77319401143018348
:101BC0007047000070B5002400220023058C4FF6FA
:101BD000EF7635400584028C8388048B48F6FF75C8
:101BE0002C404FF6FF452C400D884FF6FF7606EA55
:101BF00005252C434FF6DF752A400D8906EA0515A9
:101C00002A434D8806EA05152A43154DA84202D0FD
:101C1000144DA8421DD14FF67F752A404D894FF6CD
:101C2000FF7606EA05152A434FF6BF752A408D88D0
:101C300006EA05152A434FF6FF352B404FF2FF7594
:101C40002B408D8906EA85052B43CD8906EA85055B
:101C50002B4383800483CD880587028470BD0000F8
:101C6000002C0140003401400A460021018B4FF254
:101C7000FF7319404FF6FF7303EA022319430183F0
:101C80007047000070B5002400220023058C4FF639
:101C9000FF6635400584028C8388848B4FF68F75F0
:101CA0002C404FF6FC752C400D882C434FF6FF5509
:101CB0002A400D894FF6FF7606EA05252A434D880E
:101CC00006EA05252A43154DA84202D0144DA84224
:101CD0001DD14FF2FF752A404D894FF6FF7606EA77
:101CE00005252A434FF6FF352A408D8806EA05254B
:101CF0002A434EF6FF752B404DF6FF752B408D891C
:101D000006EA05152B43CD8906EA05152B4383808A
:101D10008483CD888587028470BD0000002C01403B
:101D2000003401400A460021818B4FF6F7731940B9
:101D3000114381837047000070B500220023002406
:101D4000058C4EF6FF7635400584038C8488828BA3
:101D500048F6FF752A404FF6FF452A400D884FF69A
:101D6000FF7606EA05252A434DF6FF752B400D89BF
:101D700006EA05352B434D8806EA05352B430B4D06
:101D8000A84202D00A4DA84208D14BF6FF752C405C
:101D90008D894FF6FF7606EA85152C438480828371
:101DA000CD88A0F84050038470BD0000002C014095
:101DB000003401400A460021818B4FF2FF73194025
:101DC0004FF6FF7303EA022319438183704781862C
:101DD00070470187704781847047028B4FF6F37319
:101DE0001A400283028B0A4302837047028B4FF230
:101DF000FF331A400283028B4FF6FF7303EA01237D
:101E00001A4302837047828B4FF6F3731A40828322
:101E1000828B0A4382837047828B4FF2FF331A40D2
:101E20008283828B4FF6FF7303EA01231A43828376
:101E300070470000002202881D4B98420ED01D4BB7
:101E400098420BD0B0F1804F08D01B4B984205D080
:101E50001A4B984202D01A4B984204D14FF68F7316
:101E60001A404B881A43174B984207D0164B98429A
:101E700004D04FF6FF431A40CB881A4302808B8868
:101E800083850B8803850A4B98420BD0094B9842F7
:101E900008D00E4B984205D00D4B984202D00D4B06
:101EA000984201D10B7A0386012383827047000098
:101EB000002C0140003401400004004000080040B4
:101EC000000C0040001000400014004000400140A1
:101ED000004401400048014010B54FF40061FD4846
:101EE000FEF76AFD4FF48051FA48FEF765FD4FF4A6
:101EF0000051F848FEF760FD4FF48041F548FEF7C9
:101F00005BFD4FF40041F348FEF756FD4FF40061CE
:101F1000F048FEF751FD012830D14103ED48FEF7AE
:101F20004BFD58BB4FF40041EA48FEF745FD012840
:101F300024D1C102E748FEF73FFDE74908604FF4AE
:101F40008051E448FEF738FDE44908604FF4005141
:101F5000E048FEF731FDE24908604FF48041DD487A
:101F6000FEF72AFDDF4908604FF40041D948FEF72B
:101F700023FDDD490860FEF729FDEAE24FF4004148
:101F8000D448FEF719FD012873D18103D148FEF72B
:101F900013FD01286DD1C102CE48FEF70DFD58B9E1
:101FA0004FF48051CB48FEF707FD28B94FF400519C
:101FB000C848FEF701FDB8B34FF40061C548FEF70D
:101FC000FBFC60B94FF48051C248FEF7F5FC30B914
:101FD0004FF40051BF48FEF7EFFC012824D04FF426
:101FE0000061BC48FEF7E8FC60B94FF48051B94885
:101FF000FEF7E2FC012805D14103B648FEF7DCFC00
:10200000012811D04FF40061B248FEF7D5FC012839
:102010002FD10103AF48FEF7CFFC48BB4FF400516E
:10202000AC48FEF7C9FC18BB4FF40061A948FEF7A5
:10203000C3FCA94908604FF48051A648FEF7BCFCD8
:10204000A64908604FF40051A248FEF7B5FCA44928
:1020500008604FF480419F48FEF7AEFCA14908603C
:102060004FF400419B48FEF7A7FC9F49086070E2CF
:10207000FFE74FF400419748FEF79EFC01284FD13F
:1020800081039448FEF798FC012849D1C102914888
:10209000FEF792FC012843D101038E48FEF78CFC29
:1020A000C8BB4FF400518B48FEF786FC012837D19E
:1020B000C1028848FEF780FC874908604FF48051D0
:1020C0008448FEF779FC854908604FF40051814847
:1020D000FEF772FC824908604FF480417D48FEF7AC
:1020E0006BFC804908604FF400417A48FEF764FCBD
:1020F0007D49086001E0FEF743FE4FF4005175484A
:10210000FEF75AFC40B94FF400617248FEF754FCE8
:10211000012801D101E003E000200128EBD118E201
:102120004FF400616B48FEF747FC01284FD10103D3
:102130006848FEF741FC012849D141036548FEF794
:102140003BFC012843D181036248FEF735FCC8BB44
:102150004FF400415F48FEF72FFC012837D1C10240
:102160005C48FEF729FC5C4908604FF480515948EF
:10217000FEF722FC594908604FF400515548FEF71C
:102180001BFC574908604FF480415248FEF714FC8D
:10219000544908604FF400414E48FEF70DFC524987
:1021A000086001E0FFF78EF84FF400414948FEF760
:1021B00003FC012807D141034648FEF7FDFB10B997
:1021C000012001E003E000200128EBD1C1E14FF440
:1021D00000614048FEF7F0FBD8BB4FF480513D480A
:1021E000FEF7EAFBA8BB4FF400513A48FEF7E4FBC8
:1021F00078BB4FF480413748FEF7DEFB48BB4FF415
:1022000000413448FEF7D8FB012823D1C1023148F0
:10221000FEF7D2FB304908604FF480512D48FEF79D
:10222000CBFB2E4908604FF400512A48FEF7C4FB4F
:102230002B4908604FF480412648FEF7BDFB294931
:1022400008604FF400412348FEF7B6FB26490860BA
:102250007FE1FFE74FF400611E48FEF7ADFB012868
:1022600048D101031B48FEF7A7FBF8BB4FF4005110
:102270001848FEF7A1FBC8BB4FF480411548FEF794
:102280009BFB98BB4FF400411248FEF795FB68BBDF
:102290004FF400610F48FEF78FFB0F4908604FF4C1
:1022A00080510C48FEF788FB0C4908604FF4005140
:1022B0000848FEF781FB0A4908604FF48041054851
:1022C000FEF77AFB074908604FF400410148FEF72A
:1022D00073FB0CE000140140A0000020A4000020CB
:1022E000A8000020AC000020B000002002E09949C6
:1022F00008602EE14FF400619748FEF75DFB01286E
:1023000073D101039448FEF757FB01286DD14103B7
:102310009148FEF751FB01280AD181038E48FEF750
:102320004BFB28B94FF400418B48FEF745FBB8B38F
:102330004FF400518848FEF73FFB01280AD1810382
:102340008548FEF739FB012804D1C1038248FEF716
:1023500033FB28B34FF400517F48FEF72DFB60B9E3
:102360004FF480417C48FEF727FB30B94FF4004121
:102370007948FEF721FB012812D04FF4005176482E
:10238000FEF71AFB012830D181037348FEF714FBD6
:1023900050BB4FF400417048FEF70EFB012824D1DA
:1023A0004FF400616C48FEF707FB6C4908604FF47E
:1023B00080516948FEF700FB694908604FF40051FD
:1023C0006548FEF7F9FA674908604FF480416248B2
:1023D000FEF7F2FA644908604FF400415E48FEF7E8
:1023E000EBFA5C490860B4E0FFE74FF400615A483B
:1023F000FEF7E2FA0128F6D101035748FEF7DCFAAE
:102400000128F0D141035448FEF7D6FA0128EAD159
:1024100081035148FEF7D0FA012846D1C1034E4846
:10242000FEF7CAFA012840D14A48006848B34E482E
:10243000006830B34C48006810B94648006800B3E3
:102440004848006828B94848006810B94148006801
:10245000B8B14348006840B94248006828B94248CA
:10246000006810B93B48006858B14FF400513A4831
:10247000FEF7A2FAD0B94FF480413748FEF79CFA34
:10248000A0B901E0FEF71EFF4FF400413248FEF70D
:1024900093FA012806D141032F48FEF78DFA08B9B7
:1024A000012000E000200128ECD152E02B48006818
:1024B00048B32B48006830B32848006810B9284852
:1024C000006800B32548006828B92548006810B99D
:1024D00024480068B8B12148006840B92048006825
:1024E00028B92048006810B91F48006858B14FF457
:1024F00080511948FEF760FAD0B94FF400511648E0
:10250000FEF75AFAA0B901E0FEF73AFC4FF4005189
:102510001148FEF751FA38B94FF400610E48FEF742
:102520004BFA012800D100E000200128ECD110E096
:102530000A48006868B90A48006850B90948006844
:1025400038B90948006820B90248006808B9FFF79F
:1025500021F810BDB000002000140140A0000020B0
:10256000A4000020A8000020AC00002008B5012134
:102570002020FEF7C5FD04208DF803004FF47840BD
:10258000ADF8000003208DF8020069460148FEF70F
:102590003FF908BD0014014010B540F225511D4817
:1025A00000F0E2F810B31B4800F09AF9C4B21A48E0
:1025B000008800F40040C8B91748008800F4804043
:1025C00060B10A2C03D000201349088020E0124893
:1025D000008840F400401049088019E00D2C06D115
:1025E0000D48008840F480400B49088010E00A48FC
:1025F0000088C0F30D0009490C5407480088401CAE
:102600000549088008460088C72801DD00200880A9
:1026100010BD00000038014020000020BC00002058
:1026200010B540F225510A4800F09EF848B108481C
:1026300000F056F90749087007480068401C064931
:10264000086040F22551024800F024F810BD000057
:1026500000440040B4000020B800002010B540F253
:102660002551094800F080F838B1074800F038F9E2
:102670000649087001200649087040F225510248B9
:1026800000F008F810BD0000004800409A0000204B
:102690009900002010B50022002340F66A14A142E0
:1026A00000D100BF0A1201249440A3B2DC4304808D
:1026B00010BD21B1828942F40052828104E08289F6
:1026C0004DF6FF731A4082817047000010B5044632
:1026D0002048844209D101218803FEF721FD002111
:1026E0004FF48040FEF71CFD32E01B48844209D1C4
:1026F00001214804FEF7F4FC00214FF40030FEF7FE
:10270000EFFC25E01548844209D101218804FEF739
:10271000E7FC00214FF48020FEF7E2FC18E01048AF
:10272000844209D10121C804FEF7DAFC00214FF4EC
:102730000020FEF7D5FC0BE00A48844208D10121B5
:102740000805FEF7CDFC00214FF48010FEF7C8FC11
:1027500010BD000000380140004400400048004027
:10276000004C00400050004070B502460024002399
:102770000025002040F66A16B14200D100BFC1F327
:10278000421501F01F03012606FA03F3012D02D1C1
:102790009689334006E0022D02D1168A334001E0CB
:1027A000968A33400C12012606FA04F41688344047
:1027B00013B10CB1012000E0002070BDF0B503465C
:1027C000002400260025002040F66A17B94200D1F7
:1027D00000BF1846C1F3421401F01F06012707FA93
:1027E00006F5012C01D10C3004E0022C01D110308F
:1027F00000E014301AB107682F43076002E0076851
:10280000AF430760F0BD00002DE9F04786B00546F4
:102810000E460024A24600BFA1460027B08900B1A1
:1028200000BF2F462C8A4CF6FF700440F08804430A
:102830002C82AC894EF6F3100440B08831890843ED
:10284000718908430443AC81AC8A4FF6FF400440D1
:10285000B0890443AC8201A8FEF772FC1F4887428E
:1028600002D1DDF810A001E0DDF80CA0A88900F489
:10287000004040B10AEBCA0000EB0A103168490081
:10288000B0FBF1F807E00AEBCA0000EB0A10316870
:102890008900B0FBF1F86420B8FBF0F004012009D6
:1028A000642101FB1089A88900F4004040B1322066
:1028B00000EBC900B0FBF1F000F00700044308E0B2
:1028C000322000EB09106421B0FBF1F000F00F00A2
:1028D00004432C8106B0BDE8F087000000380140B9
:1028E00001468888C0F308007047000070B50748AB
:1028F000006880F000440548006880F0004500232F
:102900001A4621462846FDF791FD70BD9C00002027
:1029100010B500231A46034801680068FDF786FDDC
:1029200010BD00009C00002000BFFEE700BF704704
:102930002DE9F04104460B49204600F0E7FC8046B3
:10294000094900F02DFE0746084900F071FC0646D3
:1029500000F0BAFD85B229460548FFF73AFABDE80E
:10296000F0810000000034430000A0410000A040BE
:10297000002C014010B50020FFF7DAFF10BD000069
:1029800010B56FF00400FEF70DFE0A4800680A4912
:10299000B0FBF1F0094908700846007800EB4001EF
:1029A000C1EBC0104FF6FF7101EAC0000449088076
:1029B00010BD00000400002000127A001800002062
:1029C0001A0000200146114A12884A434FF0E023C2
:1029D0005A6100229A611A46126942F001021A6194
:1029E00000BF4FF0E022106900F001021AB100F4BC
:1029F0008032002AF5D04FF0E022126922F0010265
:102A00004FF0E0231A6100229A6170471A000020FB
:102A100010B519210148FFF7DAF910BD002C01406B
:102A2000FEF7D6FD41F61F41C720FEF761FAFFF71A
:102A3000A7FF4FF4165000F0B7F84FF4A060FEF770
:102A40004DFA002141F61F40FEF7ACFAFDF732FDCA
:102A500041F61F416320FEF775FFFFF787FD4FF436
:102A6000E13000F04FF824E0FDF724FC1148007835
:102A7000542805D1104800784B2801D1FFF72CFAD3
:102A80000E480078412803D00C48007842280BD12A
:102A90000B48006840B9FDF799FF4FF4FA70FFF753
:102AA00091FF0120064908600548006808B1FFF75A
:102AB00013FAD9E79A00002098000020B400002003
:102AC000000000200146002901DA484200E00846E3
:102AD0007047000010B500210148FFF778F910BDDC
:102AE000002C014010B50248FFF722FF10BD000086
:102AF0000000AE4210B504210148FFF768F910BD8F
:102B0000002C014010B586B0044601210420FEF7D8
:102B1000F7FA01214804FEF7D3FA0420ADF81400B7
:102B200003208DF8160018208DF8170005A91C4801
:102B3000FDF76EFE0820ADF8140004208DF8170094
:102B400005A91748FDF764FE26208DF80000022035
:102B50008DF801008DF8020001208DF80300684611
:102B6000FEF784F901940020ADF80800ADF80A00E2
:102B7000ADF80C00ADF810000C20ADF80E0001A966
:102B80000848FFF741FE012240F225510548FFF7B2
:102B900015FE01210348FFF78CFD06B010BD0000B3
:102BA000000801400044004010B586B004460121F1
:102BB0000820FEF7A5FA01218804FEF781FA2348D0
:102BC000FFF784FD4FF48060ADF8100003208DF80E
:102BD000120018208DF8130004A91D48FDF718FEF7
:102BE0004FF40060ADF8100004208DF8130004A924
:102BF0001748FDF70DFE00940020ADF80400ADF875
:102C00000600ADF80800ADF80C000C20ADF80A0085
:102C100069460E48FFF7F8FD01210C48FFF749FD12
:102C2000012240F225510948FFF7C8FD27208DF801
:102C3000140001208DF815008DF816008DF817008E
:102C400005A8FEF713F906B010BD000000480040CB
:102C5000000C014021F00042A2F16052B2F5801F49
:102C600001F0004328BFD2F17F6C0BD95FEA001C52
:102C700043EAC20242EB507018BF704728BF20F0F1
:102C800001007047B2F5801FBCBF184670474FEA7D
:102C9000410C1CF5001F02D2084600F048BD70B57B
:102CA00000F05CF900000089FFF7F6BF4FF000402C
:102CB000A0F580007047000010B591EA030F48BFEF
:102CC00083F0004300F1A681841A71EB030C05D256
:102CD000121943EB0C03001B61EB0C01DFF824E13C
:102CE0004FEA1154A4EB135C1EEA430F18BF9EEA8F
:102CF000445F73D023EA0E03DCF1200E21EA045175
:102D000043F4801332D322FA0CFE10EB0E0023FAA8
:102D10000CFE41EB0E01CCF1200E03FA0EFE10EB7F
:102D20000E0051F10001B1F5801FCCF1200E32D21E
:102D300001EB045112FA0EF2BDE8104058BF704783
:102D4000401C38BF5FEA420218BF7047002814BF1A
:102D500020F0010041F100014FEA410313F5001F8B
:102D600038BF7047A1F1C04100F046B9012A43EBDA
:102D70000302ACF1200CDCF11F0E32BF4FF0000E4D
:102D800023FA0CF310EB030041EB0451B4EB115F99
:102D9000D0D0A1EB045101F5801149085FEA300061
:102DA00001EB04510ED350F1000038BF12FA0EFEB1
:102DB00008D1BDE81040C9E7401C38BF5FEA4202B5
:102DC000CAD1C3E7BDE810404FEA410313F5001F25
:102DD00038BF7047A1F1C04100F00EB99EEA445FD0
:102DE00008D011EA5E0FBDE8104004BF01F00041B9
:102DF00000207047BDE8104070B500F0AFF800BF8C
:102E000064FBBE3E0000E0FFDFF848C170B51CEA7D
:102E1000111E1EBF1CEA13159EEA0C0F95EA0C0F3B
:102E200000F06F8081EA030423EA4C134EEAD47E5B
:102E300021EA4C1141F4801143F48013AE44A1FB0C
:102E4000024CA0FB0365AEF17F7E361955EB0C05F5
:102E5000A1FB034C4CF10003A0FB021C16EB0C067B
:102E6000654153F10003094218BF46F0010613F40F
:102E7000007F0BD14FEA03314FEA0530340341EABA
:102E8000155140EA16506FF003020AE04FEAC321E1
:102E90004FEAC520F40241EA555140EA56506FF01E
:102EA000020202EB2E4201EB025585EACE710AD0F6
:102EB0005FEA440C18BF24F0004450F1000041F1D7
:102EC000000120EAD47040F2FE7C624500D270BD61
:102ED000A84214BF4FF080444FF04044002E08BF7A
:102EE0000024BEF1806FA8BFA1F1C041BDE87040D1
:102EF00080F282804FF0000001F1C04101F00041FA
:102F000070479EEA0C0F0CEA131518BF95EA0C0FD8
:102F100006D04FF0000081EA030E0EF0004170BDB4
:102F200000F01CF88900013E00F007B800F009B875
:102F30004FEA430C5FEA5C5C08D081EA030100F0D1
:102F40005BB84FEA410C5FEA5C5CF6D14FF00000E1
:102F5000014970470000FF070000F87F0EF1020EE4
:102F60002EF0030E5EF8046B364205D4012A43EBC3
:102F7000030515F5001F12D8012841EB010C1CF5C3
:102F8000001F0CD80ED14FEAD17C15F5001F0CEBB9
:102F90004C0C0CF1020C08BF4CEBD37C04E04FF05E
:102FA000080C01E04FEAD37C0CEB4C0526FA05F641
:102FB00006F00706B6F1040C06D20EEB860CBDE84F
:102FC00070404CF0010C6047DFE80CF0090B020286
:102FD0004FF000414FF00000A1F5002170BD1946EF
:102FE0001046012851EB010418BFD4F5001484BF2A
:102FF000002001F0004170BD0808A0F500114FEA63
:103000003101704710B591EA030F48BF83F00043C8
:103010003FF55AAE841A71EB030C07D212198CF0EB
:10302000004C43EB0C03001B61EB0C01DFF8A4E147
:103030004FEA1154A4EB135C1EEA430F18BF9EEA3B
:10304000445F00F0B08023EA6E03524221EA04514B
:10305000C3EB6E0338BF5B1EDCF1200E25D322FAD2
:103060000CFE10EB0E0043FA0CFE41EB0E01CCF10E
:10307000200E03FA0EFE10EB0E0051F10001CCF110
:10308000200E29D412FA0EF201EB0451BDE81040D3
:1030900058BF7047401C1CBFB2F1004F704700285A
:1030A0000CBF491C20F00100704712EB020E43EBED
:1030B000030218BF4FF0010E4EEA4202ACF1200CA1
:1030C000DCF11E0E54D943FA0CFE10EB0E0051F148
:1030D000FF31CCF11E0ED5D50EF1010E12FA0EFE07
:1030E000404141EB010101EB445C5FEA5C5C10D9BB
:1030F00010EBDE7001EB045138BFBEF1004FBDE8AC
:10310000104018BF704700280CBF491C20F0010078
:10311000704730D24FEAD42C11F5001124F400642A
:103120001BD0B1FA81F20B3AA41AA41ED2F12003EB
:10313000914030FA03F31943904001EBCC71002C1D
:1031400001EB0451BDE81040A8BF704701F1C04138
:103150004FF0000001F000417047B0FA80F310FA20
:1031600003F100D110BDE41A173C4805C90AE4E791
:1031700001EB045110BD491001EB0451BDE81040B2
:103180004FEA300002E04FF0000170474A0008BFEC
:103190000042F8D0B2F5001F28BF704701F000418F
:1031A0004FF0000070479EEA445F07D011EA5E0FBF
:1031B000BDE8104004BF002100207047BDE810406A
:1031C00070B5FFF7CBFE00BF40DFF63E83F0004155
:1031D000104670470000E0FF43004FEAD30C4FEA6F
:1031E0003C0C43401FBF40070CF1605113F0FE4FF1
:1031F00070471CF0006F03D100200CF000417047B5
:103200000CF0004343EA507010B540EACC0000F0E7
:1032100048FA00BF000000924FEA0001FFF7ECBE41
:103220004FF000414FF00000A1F500217047000071
:1032300090EA010F48BF81F0004100F1C082421ABC
:103240003CBF801A89184FEAD0524FF07F4C1CEADD
:10325000410FA2EBD15318BF9CEA026F00F03B80F4
:103260004FF0004C4CEA00204CEA012121FA03FC0B
:1032700010EB0C0C1ED202F1FF325FEA1C2040EB77
:10328000C25038BF70471CF07F0F4FEA400C18BF88
:10329000BCF17F4F38BF7047C3F12003994008BF8E
:1032A00020F00100BCF17F4F38BF7047A0F1C04053
:1032B00000F03DBA4FEA3C00000A40EBC25028BF84
:1032C0001CF0FF0F4FEA400CE6D018BFBCF17F4F57
:1032D00038BF7047EAE79CEA026F05D010EA5C0F3E
:1032E00008BF00F00040704710B500F0DAF900BFE9
:1032F00064FBBE3E401058BFC0F14040491058BF6B
:10330000C1F140418142EFF3008070474FF47F0CE0
:103310001CEAD0121EBF1CEAD11392EA0C0F93EAEA
:103320000C0F00F0858090EA010F48BF42F48072D4
:1033300040F4000C41F400002CF07F4120F07F406D
:1033400000B58142A2EB03020FF2081CACEB504E19
:10335000C0F100009EF800E04FEA4E0E00FB0EFCAC
:1033600038BF49004FEA2C1C02F5FA020CFB0EF3A1
:103370004FEACE1E4FEA112C4FEAC1210EEB635EDD
:1033800042EB22420EFB0CFC4FEA1C5300FB0311E4
:103390004FEA112C4FEA01310EFB0CFC4FEADC4CDA
:1033A00000FB0C11C14228BF09184CEB03335DF838
:1033B00004EB10EB410143EBC250B2F57C0F38BF78
:1033C000704729D512F0F00F1CBF00F1C04000F08B
:1033D00000407047008182838485868788898B8C32
:1033E0008D8E8F919293959697999A9C9D9FA0A26E
:1033F000A3A5A7A8AAACAEB0B2B3B5B7B9BCBEC0BE
:10340000C2C5C7C9CCCED1D4D7D9DCDFE2E6E9EC5E
:10341000F0F3F7FAFE0000004FEA400C0CF1807C5C
:10342000BCF17E4F28BF7047B0F1C04000F07FB9BB
:1034300090EA010F0CEAD11348BF42F48072624552
:1034400038BF634507D213F47F0F16D080EA01001E
:1034500000F00040704710B500F023F9097EFC3EF3
:1034600000F005B880EA010000F00040704780EAF3
:10347000010000F0004000F05AB912F47F0F04BFC1
:103480000248704780EA010000F051B90000C07F97
:1034900041000B0ED3F19E0208D950F400034FEA0D
:1034A000032323FA02F048BF4042704710B500F0F2
:1034B000F8F800BF49922480002070476FF0004266
:1034C00082EA200070470000C10DD1F19E0206DBA8
:1034D0004FEA002343F0004323FA02F07047004212
:1034E00007D54FEA4001B1F1FE4F02D24FF0000084
:1034F000704710B500F0D5F849922480002070473D
:103500006FEA20007047000010F0004148BF4042C1
:10351000B0FA80F310FA03F2C3F19D030BD051EA25
:10352000C35101EB1220530638BF704700F1010070
:1035300008BF20F00100704750EA010C00F1138031
:103540001CF5000F58BFBCF5000F01D4884270472E
:1035500007D710F5000F58BF11F5000F15D488429A
:103560007047894270471CF5000F04D5BCF5000F69
:10357000F7D5814270474FF0807C1CEB400F38BF7D
:103580001CEB410F01D28142704710B500F089F861
:10359000922449004FF000504FF08051FFF7AABE2F
:1035A0004FF47F0C1CEAD0121EBF1CEAD11392EA22
:1035B0000C0F93EA0C0F00F0478090EA010F48BF10
:1035C00042F480724FF0004C4CEA00204CEA01219A
:1035D00002EB0302A0FB0113A2F50002002918BFB1
:1035E00043F001035B0028BF4FEA330342EB224262
:1035F0005FEA132C4CEBC2502EBFBCEB436FB2F50D
:103600007C0F70474FEA036CBCF1004F08BF20F0FD
:103610000100B2F57C0F38BF70470BD582F0FF0276
:1036200012F5803FC8BF704700F1C040D8BF00F01E
:103630000040704700F5000C5FEA4C0C48BF704733
:10364000B0F1C04000F073B890EA010F0CEAD1135A
:1036500048BF42F48072624538BF634504D280EAB5
:10366000010000F00040704710B500F01AF800BFEC
:103670008900013E00F007B800F009B85FEA410C8C
:103680005FEA1C6C08D080EA010000F050B85FEAE5
:10369000400C5FEA1C6CF6D14FF00040A0F58000B2
:1036A00070470EF1020E2EF0030E5EF8044B24421A
:1036B00004D44FEA4102B2F17F4F11D84FEA4003E0
:1036C000B3F17F4F0CD80ED14FEAD07CB2F17F4FCF
:1036D0000CEB4C0C0CF1020C08BF4CEBD17C04E061
:1036E0004FF0080C01E04FEAD17C0CEB4C0324FABC
:1036F00003F404F00704B4F1040C06D20EEB840CBE
:10370000BDE810404CF0010C6047DFE80CF0070802
:1037100002024FF00040A0F5800010BD08464200B4
:1037200018BFD2F1807288BF00F0004010BDFF21A9
:1037300041EAD050C005704751EA000C00F11380F7
:103740001CF5000F58BFBCF5000F01D48142704733
:1037500007D711F5000F58BF10F5000F15D481429F
:103760007047894270471CF5000F04D5BCF5000F67
:10377000F7D5884270474FF0807C1CEB410F38BF73
:103780001CEB400F01D28842704780EA010081EAB9
:10379000000180EA0100FFF7F8BE80F0004090EAE7
:1037A000010F7FF54CAD81F0004100F008B800003A
:1037B00090EA010F48BF81F000413FF540AD421A49
:1037C00004D882F00042A0EB020011444FEAD0522C
:1037D0004FF07F4C1CEA410FA2EBD15318BF9CEA7B
:1037E000026F4AD04FF0004C4CEA00204CEA012115
:1037F00021FA03FCB0EB0C0C0FD412F0FE0F36D004
:103800005FEA4C001DD5001240EBC25038BF704734
:103810001CF03F0F18BF70470BE0A2F101025FEAF6
:103820001C2040EBC25038BF70471CF07F0F18BF00
:103830007047C3F12003994014BF401E20F00100DF
:10384000704780084FEA122308BF7047B0FA80FC27
:10385000A2EB0C02CCF1280C60FA0CF093EA122FC8
:1038600004BF00EBC25070474FEAC3707047130AA1
:103870005FEADC1008BF7047F6E79CEA026F04D0ED
:1038800010EA5C0F08BF0020704710B5FFF709FF72
:1038900040DFF63E81F0004070470000BC38000871
:1038A00000000020BC0000006C010008783900080E
:1038B000BC0000208C070000880100080000000008
:1038C00000A24A04000000000000000001020304FE
:1038D00006070809000000000000000000000000CA
:1038E00000000102030401020304060708090204A0
:1038F00006080000000010410000404000000000E9
:103900000000104100004040000000000000104195
:103910000000404000000000000010410000404056
:103920000000000000000000000000000000000097
:103930000000000000000000000000000000000087
:103940000000000000000000000000000000000077
:10395000000000000000000000009644000000008D
:103960000000000000000000000000000000000057
:0839700000000000000000004F
:04000005080001CD21
:00000001FF
